{
  "contractName": "HelloWorld",
  "abi": [
    {
      "inputs": [],
      "stateMutability": "nonpayable",
      "type": "constructor"
    },
    {
      "inputs": [
        {
          "internalType": "address",
          "name": "owner",
          "type": "address"
        }
      ],
      "name": "OwnableInvalidOwner",
      "type": "error"
    },
    {
      "inputs": [
        {
          "internalType": "address",
          "name": "account",
          "type": "address"
        }
      ],
      "name": "OwnableUnauthorizedAccount",
      "type": "error"
    },
    {
      "anonymous": false,
      "inputs": [
        {
          "indexed": true,
          "internalType": "address",
          "name": "previousOwner",
          "type": "address"
        },
        {
          "indexed": true,
          "internalType": "address",
          "name": "newOwner",
          "type": "address"
        }
      ],
      "name": "OwnershipTransferred",
      "type": "event"
    },
    {
      "inputs": [],
      "name": "getMessage",
      "outputs": [
        {
          "internalType": "string",
          "name": "",
          "type": "string"
        }
      ],
      "stateMutability": "view",
      "type": "function"
    },
    {
      "inputs": [],
      "name": "owner",
      "outputs": [
        {
          "internalType": "address",
          "name": "",
          "type": "address"
        }
      ],
      "stateMutability": "view",
      "type": "function"
    },
    {
      "inputs": [],
      "name": "renounceOwnership",
      "outputs": [],
      "stateMutability": "nonpayable",
      "type": "function"
    },
    {
      "inputs": [
        {
          "internalType": "string",
          "name": "_message",
          "type": "string"
        }
      ],
      "name": "setMessage",
      "outputs": [],
      "stateMutability": "nonpayable",
      "type": "function"
    },
    {
      "inputs": [
        {
          "internalType": "address",
          "name": "newOwner",
          "type": "address"
        }
      ],
      "name": "transferOwnership",
      "outputs": [],
      "stateMutability": "nonpayable",
      "type": "function"
    }
  ],
  "bytecode": "0x60806040526040518060400160405280600b81526020017f48656c6c6f20576f726c64000000000000000000000000000000000000000000815250600190816200004a919062000423565b5034801562000057575f80fd5b50d3801562000064575f80fd5b50d2801562000071575f80fd5b50335f73ffffffffffffffffffffffffffffffffffffffff168173ffffffffffffffffffffffffffffffffffffffff1603620000e6575f6040517f1e4fbdf7000000000000000000000000000000000000000000000000000000008152600401620000dd91906200054a565b60405180910390fd5b620000f781620000fe60201b60201c565b5062000565565b5f805f9054906101000a900473ffffffffffffffffffffffffffffffffffffffff169050815f806101000a81548173ffffffffffffffffffffffffffffffffffffffff021916908373ffffffffffffffffffffffffffffffffffffffff1602179055508173ffffffffffffffffffffffffffffffffffffffff168173ffffffffffffffffffffffffffffffffffffffff167f8be0079c531659141344cd1fd0a4f28419497f9722a3daafe3b4186f6b6457e060405160405180910390a35050565b5f81519050919050565b7f4e487b71000000000000000000000000000000000000000000000000000000005f52604160045260245ffd5b7f4e487b71000000000000000000000000000000000000000000000000000000005f52602260045260245ffd5b5f60028204905060018216806200023b57607f821691505b602082108103620002515762000250620001f6565b5b50919050565b5f819050815f5260205f209050919050565b5f6020601f8301049050919050565b5f82821b905092915050565b5f60088302620002b57fffffffffffffffffffffffffffffffffffffffffffffffffffffffffffffffff8262000278565b620002c1868362000278565b95508019841693508086168417925050509392505050565b5f819050919050565b5f819050919050565b5f6200030b62000305620002ff84620002d9565b620002e2565b620002d9565b9050919050565b5f819050919050565b6200032683620002eb565b6200033e620003358262000312565b84845462000284565b825550505050565b5f90565b6200035462000346565b620003618184846200031b565b505050565b5b8181101562000388576200037c5f826200034a565b60018101905062000367565b5050565b601f821115620003d757620003a18162000257565b620003ac8462000269565b81016020851015620003bc578190505b620003d4620003cb8562000269565b83018262000366565b50505b505050565b5f82821c905092915050565b5f620003f95f1984600802620003dc565b1980831691505092915050565b5f620004138383620003e8565b9150826002028217905092915050565b6200042e82620001bf565b67ffffffffffffffff8111156200044a5762000449620001c9565b5b62000456825462000223565b620004638282856200038c565b5f60209050601f83116001811462000499575f841562000484578287015190505b62000490858262000406565b865550620004ff565b601f198416620004a98662000257565b5f5b82811015620004d257848901518255600182019150602085019450602081019050620004ab565b86831015620004f25784890151620004ee601f891682620003e8565b8355505b6001600288020188555050505b505050505050565b5f73ffffffffffffffffffffffffffffffffffffffff82169050919050565b5f620005328262000507565b9050919050565b620005448162000526565b82525050565b5f6020820190506200055f5f83018462000539565b92915050565b610a6380620005735f395ff3fe608060405234801561000f575f80fd5b50d3801561001b575f80fd5b50d28015610027575f80fd5b506004361061006d575f3560e01c8063368b877214610071578063715018a61461008d5780638da5cb5b14610097578063ce6d41de146100b5578063f2fde38b146100d3575b5f80fd5b61008b6004803603810190610086919061053a565b6100ef565b005b610095610150565b005b61009f610163565b6040516100ac91906105c0565b60405180910390f35b6100bd61018a565b6040516100ca9190610653565b60405180910390f35b6100ed60048036038101906100e891906106c8565b61021a565b005b6100f761029e565b6103e88151111561013d576040517f08c379a00000000000000000000000000000000000000000000000000000000081526004016101349061073d565b60405180910390fd5b806001908161014c919061095e565b5050565b61015861029e565b6101615f610325565b565b5f805f9054906101000a900473ffffffffffffffffffffffffffffffffffffffff16905090565b60606001805461019990610788565b80601f01602080910402602001604051908101604052809291908181526020018280546101c590610788565b80156102105780601f106101e757610100808354040283529160200191610210565b820191905f5260205f20905b8154815290600101906020018083116101f357829003601f168201915b5050505050905090565b61022261029e565b5f73ffffffffffffffffffffffffffffffffffffffff168173ffffffffffffffffffffffffffffffffffffffff1603610292575f6040517f1e4fbdf700000000000000000000000000000000000000000000000000000000815260040161028991906105c0565b60405180910390fd5b61029b81610325565b50565b6102a66103e6565b73ffffffffffffffffffffffffffffffffffffffff166102c4610163565b73ffffffffffffffffffffffffffffffffffffffff1614610323576102e76103e6565b6040517f118cdaa700000000000000000000000000000000000000000000000000000000815260040161031a91906105c0565b60405180910390fd5b565b5f805f9054906101000a900473ffffffffffffffffffffffffffffffffffffffff169050815f806101000a81548173ffffffffffffffffffffffffffffffffffffffff021916908373ffffffffffffffffffffffffffffffffffffffff1602179055508173ffffffffffffffffffffffffffffffffffffffff168173ffffffffffffffffffffffffffffffffffffffff167f8be0079c531659141344cd1fd0a4f28419497f9722a3daafe3b4186f6b6457e060405160405180910390a35050565b5f33905090565b5f604051905090565b5f80fd5b5f80fd5b5f80fd5b5f80fd5b5f601f19601f8301169050919050565b7f4e487b71000000000000000000000000000000000000000000000000000000005f52604160045260245ffd5b61044c82610406565b810181811067ffffffffffffffff8211171561046b5761046a610416565b5b80604052505050565b5f61047d6103ed565b90506104898282610443565b919050565b5f67ffffffffffffffff8211156104a8576104a7610416565b5b6104b182610406565b9050602081019050919050565b828183375f83830152505050565b5f6104de6104d98461048e565b610474565b9050828152602081018484840111156104fa576104f9610402565b5b6105058482856104be565b509392505050565b5f82601f830112610521576105206103fe565b5b81356105318482602086016104cc565b91505092915050565b5f6020828403121561054f5761054e6103f6565b5b5f82013567ffffffffffffffff81111561056c5761056b6103fa565b5b6105788482850161050d565b91505092915050565b5f73ffffffffffffffffffffffffffffffffffffffff82169050919050565b5f6105aa82610581565b9050919050565b6105ba816105a0565b82525050565b5f6020820190506105d35f8301846105b1565b92915050565b5f81519050919050565b5f82825260208201905092915050565b5f5b838110156106105780820151818401526020810190506105f5565b5f8484015250505050565b5f610625826105d9565b61062f81856105e3565b935061063f8185602086016105f3565b61064881610406565b840191505092915050565b5f6020820190508181035f83015261066b818461061b565b905092915050565b5f74ffffffffffffffffffffffffffffffffffffffffff82169050919050565b61069c81610673565b81146106a6575f80fd5b50565b5f813590506106b781610693565b6106c0816105a0565b905092915050565b5f602082840312156106dd576106dc6103f6565b5b5f6106ea848285016106a9565b91505092915050565b7f4d65737361676520746f6f206c6f6e67000000000000000000000000000000005f82015250565b5f6107276010836105e3565b9150610732826106f3565b602082019050919050565b5f6020820190508181035f8301526107548161071b565b9050919050565b7f4e487b71000000000000000000000000000000000000000000000000000000005f52602260045260245ffd5b5f600282049050600182168061079f57607f821691505b6020821081036107b2576107b161075b565b5b50919050565b5f819050815f5260205f209050919050565b5f6020601f8301049050919050565b5f82821b905092915050565b5f600883026108147fffffffffffffffffffffffffffffffffffffffffffffffffffffffffffffffff826107d9565b61081e86836107d9565b95508019841693508086168417925050509392505050565b5f819050919050565b5f819050919050565b5f61086261085d61085884610836565b61083f565b610836565b9050919050565b5f819050919050565b61087b83610848565b61088f61088782610869565b8484546107e5565b825550505050565b5f90565b6108a3610897565b6108ae818484610872565b505050565b5b818110156108d1576108c65f8261089b565b6001810190506108b4565b5050565b601f821115610916576108e7816107b8565b6108f0846107ca565b810160208510156108ff578190505b61091361090b856107ca565b8301826108b3565b50505b505050565b5f82821c905092915050565b5f6109365f198460080261091b565b1980831691505092915050565b5f61094e8383610927565b9150826002028217905092915050565b610967826105d9565b67ffffffffffffffff8111156109805761097f610416565b5b61098a8254610788565b6109958282856108d5565b5f60209050601f8311600181146109c6575f84156109b4578287015190505b6109be8582610943565b865550610a25565b601f1984166109d4866107b8565b5f5b828110156109fb578489015182556001820191506020850194506020810190506109d6565b86831015610a185784890151610a14601f891682610927565b8355505b6001600288020188555050505b50505050505056fea26474726f6e5822122023a1b2b4b98e9aa6efbb411b5d4862e7074746ae001135b36840a49d5f8da36064736f6c63430008150033",
  "source": "// SPDX-License-Identifier: MIT\npragma solidity ^0.8.21;\n\nimport \"@openzeppelin/contracts/access/Ownable.sol\";\n\ncontract HelloWorld is Ownable {\n  string private message = \"Hello World\";\n\n  constructor() Ownable(msg.sender) {}\n\n function setMessage(string memory _message) public onlyOwner {\n  require(bytes(_message).length <= 1000, \"Message too long\");\n  message = _message;\n}\n\n  function getMessage() public view returns (string memory) {\n    return message;\n  }\n}",
  "sourcePath": "C:/Users/sirho/hello-world-dapp/tron/contracts/HelloWorld.sol",
  "compiler": {
    "name": "solc",
    "version": "0.8.21+commit.1425c990.Emscripten.clang"
  },
  "schemaVersion": "2.0.1",
  "updatedAt": "2025-05-26T13:22:59.350Z"
}